{"abi":[{"type":"constructor","inputs":[{"name":"_fileName","type":"string","internalType":"string"},{"name":"_documentTitle","type":"string","internalType":"string"},{"name":"_documentDescription","type":"string","internalType":"string"},{"name":"_intendedSigner","type":"address","internalType":"address"},{"name":"_documentContentHash","type":"string","internalType":"string"}],"stateMutability":"nonpayable"},{"type":"function","name":"approve","inputs":[{"name":"to","type":"address","internalType":"address"},{"name":"tokenId","type":"uint256","internalType":"uint256"}],"outputs":[],"stateMutability":"nonpayable"},{"type":"function","name":"balanceOf","inputs":[{"name":"owner","type":"address","internalType":"address"}],"outputs":[{"name":"","type":"uint256","internalType":"uint256"}],"stateMutability":"view"},{"type":"function","name":"documentContentHash","inputs":[],"outputs":[{"name":"","type":"string","internalType":"string"}],"stateMutability":"view"},{"type":"function","name":"documentDescription","inputs":[],"outputs":[{"name":"","type":"string","internalType":"string"}],"stateMutability":"view"},{"type":"function","name":"documentTitle","inputs":[],"outputs":[{"name":"","type":"string","internalType":"string"}],"stateMutability":"view"},{"type":"function","name":"fileName","inputs":[],"outputs":[{"name":"","type":"string","internalType":"string"}],"stateMutability":"view"},{"type":"function","name":"getApproved","inputs":[{"name":"tokenId","type":"uint256","internalType":"uint256"}],"outputs":[{"name":"","type":"address","internalType":"address"}],"stateMutability":"view"},{"type":"function","name":"getDocument","inputs":[],"outputs":[{"name":"","type":"string","internalType":"string"}],"stateMutability":"view"},{"type":"function","name":"getSign","inputs":[],"outputs":[{"name":"","type":"string","internalType":"string"}],"stateMutability":"view"},{"type":"function","name":"intendedSigner","inputs":[],"outputs":[{"name":"","type":"address","internalType":"address"}],"stateMutability":"view"},{"type":"function","name":"isApprovedForAll","inputs":[{"name":"owner","type":"address","internalType":"address"},{"name":"operator","type":"address","internalType":"address"}],"outputs":[{"name":"","type":"bool","internalType":"bool"}],"stateMutability":"view"},{"type":"function","name":"name","inputs":[],"outputs":[{"name":"","type":"string","internalType":"string"}],"stateMutability":"view"},{"type":"function","name":"owner","inputs":[],"outputs":[{"name":"","type":"address","internalType":"address"}],"stateMutability":"view"},{"type":"function","name":"ownerOf","inputs":[{"name":"tokenId","type":"uint256","internalType":"uint256"}],"outputs":[{"name":"","type":"address","internalType":"address"}],"stateMutability":"view"},{"type":"function","name":"renounceOwnership","inputs":[],"outputs":[],"stateMutability":"nonpayable"},{"type":"function","name":"safeTransferFrom","inputs":[{"name":"from","type":"address","internalType":"address"},{"name":"to","type":"address","internalType":"address"},{"name":"tokenId","type":"uint256","internalType":"uint256"}],"outputs":[],"stateMutability":"nonpayable"},{"type":"function","name":"safeTransferFrom","inputs":[{"name":"from","type":"address","internalType":"address"},{"name":"to","type":"address","internalType":"address"},{"name":"tokenId","type":"uint256","internalType":"uint256"},{"name":"data","type":"bytes","internalType":"bytes"}],"outputs":[],"stateMutability":"nonpayable"},{"type":"function","name":"setApprovalForAll","inputs":[{"name":"operator","type":"address","internalType":"address"},{"name":"approved","type":"bool","internalType":"bool"}],"outputs":[],"stateMutability":"nonpayable"},{"type":"function","name":"sign","inputs":[{"name":"_signatureContentHash","type":"string","internalType":"string"}],"outputs":[],"stateMutability":"nonpayable"},{"type":"function","name":"signed","inputs":[],"outputs":[{"name":"","type":"bool","internalType":"bool"}],"stateMutability":"view"},{"type":"function","name":"supportsInterface","inputs":[{"name":"interfaceId","type":"bytes4","internalType":"bytes4"}],"outputs":[{"name":"","type":"bool","internalType":"bool"}],"stateMutability":"view"},{"type":"function","name":"symbol","inputs":[],"outputs":[{"name":"","type":"string","internalType":"string"}],"stateMutability":"view"},{"type":"function","name":"tokenURI","inputs":[{"name":"tokenId","type":"uint256","internalType":"uint256"}],"outputs":[{"name":"","type":"string","internalType":"string"}],"stateMutability":"view"},{"type":"function","name":"transferFrom","inputs":[{"name":"from","type":"address","internalType":"address"},{"name":"to","type":"address","internalType":"address"},{"name":"tokenId","type":"uint256","internalType":"uint256"}],"outputs":[],"stateMutability":"nonpayable"},{"type":"function","name":"transferOwnership","inputs":[{"name":"newOwner","type":"address","internalType":"address"}],"outputs":[],"stateMutability":"nonpayable"},{"type":"event","name":"Approval","inputs":[{"name":"owner","type":"address","indexed":true,"internalType":"address"},{"name":"approved","type":"address","indexed":true,"internalType":"address"},{"name":"tokenId","type":"uint256","indexed":true,"internalType":"uint256"}],"anonymous":false},{"type":"event","name":"ApprovalForAll","inputs":[{"name":"owner","type":"address","indexed":true,"internalType":"address"},{"name":"operator","type":"address","indexed":true,"internalType":"address"},{"name":"approved","type":"bool","indexed":false,"internalType":"bool"}],"anonymous":false},{"type":"event","name":"BatchMetadataUpdate","inputs":[{"name":"_fromTokenId","type":"uint256","indexed":false,"internalType":"uint256"},{"name":"_toTokenId","type":"uint256","indexed":false,"internalType":"uint256"}],"anonymous":false},{"type":"event","name":"DocumentSigned","inputs":[{"name":"tokenId","type":"uint256","indexed":true,"internalType":"uint256"},{"name":"signatureContentHash","type":"string","indexed":false,"internalType":"string"}],"anonymous":false},{"type":"event","name":"MetadataUpdate","inputs":[{"name":"_tokenId","type":"uint256","indexed":false,"internalType":"uint256"}],"anonymous":false},{"type":"event","name":"OwnershipTransferred","inputs":[{"name":"previousOwner","type":"address","indexed":true,"internalType":"address"},{"name":"newOwner","type":"address","indexed":true,"internalType":"address"}],"anonymous":false},{"type":"event","name":"Transfer","inputs":[{"name":"from","type":"address","indexed":true,"internalType":"address"},{"name":"to","type":"address","indexed":true,"internalType":"address"},{"name":"tokenId","type":"uint256","indexed":true,"internalType":"uint256"}],"anonymous":false},{"type":"error","name":"ERC721IncorrectOwner","inputs":[{"name":"sender","type":"address","internalType":"address"},{"name":"tokenId","type":"uint256","internalType":"uint256"},{"name":"owner","type":"address","internalType":"address"}]},{"type":"error","name":"ERC721InsufficientApproval","inputs":[{"name":"operator","type":"address","internalType":"address"},{"name":"tokenId","type":"uint256","internalType":"uint256"}]},{"type":"error","name":"ERC721InvalidApprover","inputs":[{"name":"approver","type":"address","internalType":"address"}]},{"type":"error","name":"ERC721InvalidOperator","inputs":[{"name":"operator","type":"address","internalType":"address"}]},{"type":"error","name":"ERC721InvalidOwner","inputs":[{"name":"owner","type":"address","internalType":"address"}]},{"type":"error","name":"ERC721InvalidReceiver","inputs":[{"name":"receiver","type":"address","internalType":"address"}]},{"type":"error","name":"ERC721InvalidSender","inputs":[{"name":"sender","type":"address","internalType":"address"}]},{"type":"error","name":"ERC721NonexistentToken","inputs":[{"name":"tokenId","type":"uint256","internalType":"uint256"}]},{"type":"error","name":"OwnableInvalidOwner","inputs":[{"name":"owner","type":"address","internalType":"address"}]},{"type":"error","name":"OwnableUnauthorizedAccount","inputs":[{"name":"account","type":"address","internalType":"address"}]}],"bytecode":{"object":"0x6080604052600e805460ff19169055348015610019575f80fd5b50604051611abe380380611abe83398101604081905261003891610215565b336040518060400160405280600781526020016627333a29b4b3b760c91b815250604051806040016040528060028152602001614e5360f01b815250815f90816100829190610372565b50600161008f8282610372565b5050506001600160a01b0381166100bf57604051631e4fbdf760e01b81525f600482015260240160405180910390fd5b6100c881610127565b5060096100d58682610372565b5060086100e28582610372565b50600a6100ef8482610372565b50600b6100fc8282610372565b5050600c80546001600160a01b0319166001600160a01b03929092169190911790555061042c915050565b600780546001600160a01b038381166001600160a01b0319831681179093556040519116919082907f8be0079c531659141344cd1fd0a4f28419497f9722a3daafe3b4186f6b6457e0905f90a35050565b634e487b7160e01b5f52604160045260245ffd5b5f82601f83011261019b575f80fd5b81516001600160401b038111156101b4576101b4610178565b604051601f8201601f19908116603f011681016001600160401b03811182821017156101e2576101e2610178565b6040528181528382016020018510156101f9575f80fd5b8160208501602083015e5f918101602001919091529392505050565b5f805f805f60a08688031215610229575f80fd5b85516001600160401b0381111561023e575f80fd5b61024a8882890161018c565b602088015190965090506001600160401b03811115610267575f80fd5b6102738882890161018c565b604088015190955090506001600160401b03811115610290575f80fd5b61029c8882890161018c565b606088015190945090506001600160a01b03811681146102ba575f80fd5b60808701519092506001600160401b038111156102d5575f80fd5b6102e18882890161018c565b9150509295509295909350565b600181811c9082168061030257607f821691505b60208210810361032057634e487b7160e01b5f52602260045260245ffd5b50919050565b601f82111561036d57805f5260205f20601f840160051c8101602085101561034b5750805b601f840160051c820191505b8181101561036a575f8155600101610357565b50505b505050565b81516001600160401b0381111561038b5761038b610178565b61039f8161039984546102ee565b84610326565b6020601f8211600181146103d1575f83156103ba5750848201515b5f19600385901b1c1916600184901b17845561036a565b5f84815260208120601f198516915b8281101561040057878501518255602094850194600190920191016103e0565b508482101561041d57868401515f19600387901b60f8161c191681555b50505050600190811b01905550565b611685806104395f395ff3fe608060405234801561000f575f80fd5b506004361061016d575f3560e01c806370a08231116100d9578063a22cb46511610093578063c87b56dd1161006e578063c87b56dd146102ea578063cf504e0a146102fd578063e985e9c514610305578063f2fde38b14610318575f80fd5b8063a22cb465146102bc578063b6f3f14d146102cf578063b88d4fde146102d7575f80fd5b806370a082311461025f578063715018a61461028057806379d6348d146102885780637fb6c4fa1461029b5780638da5cb5b146102a357806395d89b41146102b4575f80fd5b80632933dba51161012a5780632933dba51461020e5780632e0b8de41461022157806342842e0e146102295780636352211e1461023c57806363e47b791461024f57806366ea65e714610257575f80fd5b806301ffc9a71461017157806306fdde0314610199578063081812fc146101ae578063095ea7b3146101d9578063232a6b9d146101ee57806323b872dd146101fb575b5f80fd5b61018461017f366004611141565b61032b565b60405190151581526020015b60405180910390f35b6101a1610355565b604051610190919061118a565b6101c16101bc36600461119c565b6103e4565b6040516001600160a01b039091168152602001610190565b6101ec6101e73660046111ce565b61040b565b005b600e546101849060ff1681565b6101ec6102093660046111f6565b61041a565b600c546101c1906001600160a01b031681565b6101a16104a8565b6101ec6102373660046111f6565b610534565b6101c161024a36600461119c565b610553565b6101a161055d565b6101a161056a565b61027261026d366004611230565b610577565b604051908152602001610190565b6101ec6105bc565b6101ec6102963660046112d4565b6105cf565b6101a1610652565b6007546001600160a01b03166101c1565b6101a161065f565b6101ec6102ca366004611319565b61066e565b6101a1610679565b6101ec6102e5366004611352565b6106af565b6101a16102f836600461119c565b6106c7565b6101a16107c6565b6101846103133660046113c9565b61081f565b6101ec610326366004611230565b61084c565b5f6001600160e01b03198216632483248360e11b148061034f575061034f82610889565b92915050565b60605f8054610363906113fa565b80601f016020809104026020016040519081016040528092919081815260200182805461038f906113fa565b80156103da5780601f106103b1576101008083540402835291602001916103da565b820191905f5260205f20905b8154815290600101906020018083116103bd57829003601f168201915b5050505050905090565b5f6103ee826108d8565b505f828152600460205260409020546001600160a01b031661034f565b610416828233610910565b5050565b6001600160a01b03821661044857604051633250574960e11b81525f60048201526024015b60405180910390fd5b5f61045483833361091d565b9050836001600160a01b0316816001600160a01b0316146104a2576040516364283d7b60e01b81526001600160a01b038086166004830152602482018490528216604482015260640161043f565b50505050565b600880546104b5906113fa565b80601f01602080910402602001604051908101604052809291908181526020018280546104e1906113fa565b801561052c5780601f106105035761010080835404028352916020019161052c565b820191905f5260205f20905b81548152906001019060200180831161050f57829003601f168201915b505050505081565b61054e83838360405180602001604052805f8152506106af565b505050565b5f61034f826108d8565b600b80546104b5906113fa565b600a80546104b5906113fa565b5f6001600160a01b0382166105a1576040516322718ad960e21b81525f600482015260240161043f565b506001600160a01b03165f9081526003602052604090205490565b6105c4610a0f565b6105cd5f610a3c565b565b6105d7610a8d565b6001600d5f8282546105e99190611432565b9091555050600e805460ff19166001179055600d54610609903390610af2565b610615600d5482610b53565b600d547f578e9df4e354b26c68932bb942698fcbc694b6a33d148518aa37e1b9a0d0f93c82604051610647919061118a565b60405180910390a250565b600980546104b5906113fa565b606060018054610363906113fa565b610416338383610ba2565b60605f610684610c40565b905080600b60405160200161069a929190611468565b60405160208183030381529060405291505090565b6106ba84848461041a565b6104a23385858585610c6f565b60606106d2826108d8565b505f82815260066020526040812080546106eb906113fa565b80601f0160208091040260200160405190810160405280929190818152602001828054610717906113fa565b80156107625780601f1061073957610100808354040283529160200191610762565b820191905f5260205f20905b81548152906001019060200180831161074557829003601f168201915b505050505090505f610772610c40565b905080515f03610783575092915050565b8151156107b557808260405160200161079d9291906114e5565b60405160208183030381529060405292505050919050565b6107be84610d97565b949350505050565b600e5460609060ff1661080f5760405162461bcd60e51b8152602060048201526011602482015270111bd8dd5b595b9d081d5b9cda59db9959607a1b604482015260640161043f565b61081a600d546106c7565b905090565b6001600160a01b039182165f90815260056020908152604080832093909416825291909152205460ff1690565b610854610a0f565b6001600160a01b03811661087d57604051631e4fbdf760e01b81525f600482015260240161043f565b61088681610a3c565b50565b5f6001600160e01b031982166380ac58cd60e01b14806108b957506001600160e01b03198216635b5e139f60e01b145b8061034f57506301ffc9a760e01b6001600160e01b031983161461034f565b5f818152600260205260408120546001600160a01b03168061034f57604051637e27328960e01b81526004810184905260240161043f565b61054e8383836001610dfc565b5f828152600260205260408120546001600160a01b039081169083161561094957610949818486610f00565b6001600160a01b03811615610983576109645f855f80610dfc565b6001600160a01b0381165f90815260036020526040902080545f190190555b6001600160a01b038516156109b1576001600160a01b0385165f908152600360205260409020805460010190555b5f8481526002602052604080822080546001600160a01b0319166001600160a01b0389811691821790925591518793918516917fddf252ad1be2c89b69c2b068fc378daa952ba7f163c4a11628f55a4df523b3ef91a4949350505050565b6007546001600160a01b031633146105cd5760405163118cdaa760e01b815233600482015260240161043f565b600780546001600160a01b038381166001600160a01b0319831681179093556040519116919082907f8be0079c531659141344cd1fd0a4f28419497f9722a3daafe3b4186f6b6457e0905f90a35050565b600c546001600160a01b031633146105cd5760405162461bcd60e51b815260206004820152602260248201527f4f6e6c7920696e74656e646564207369676e65722063616e2063616c6c207468604482015261697360f01b606482015260840161043f565b6001600160a01b038216610b1b57604051633250574960e11b81525f600482015260240161043f565b5f610b2783835f61091d565b90506001600160a01b0381161561054e576040516339e3563760e11b81525f600482015260240161043f565b5f828152600660205260409020610b6a828261153d565b506040518281527ff8e1a15aba9398e019f0b49df1a4fde98ee17ae345cb5f6b5e2c27f5033e8ce79060200160405180910390a15050565b6001600160a01b038216610bd457604051630b61174360e31b81526001600160a01b038316600482015260240161043f565b6001600160a01b038381165f81815260056020908152604080832094871680845294825291829020805460ff191686151590811790915591519182527f17307eab39ab6107e8899845ad3d59bd9653f200f220920489ca2b5937696c31910160405180910390a3505050565b60408051808201909152601581527468747470733a2f2f697066732e696f2f697066732f60581b602082015290565b6001600160a01b0383163b15610d9057604051630a85bd0160e11b81526001600160a01b0384169063150b7a0290610cb19088908890879087906004016115f8565b6020604051808303815f875af1925050508015610ceb575060408051601f3d908101601f19168201909252610ce891810190611634565b60015b610d52573d808015610d18576040519150601f19603f3d011682016040523d82523d5f602084013e610d1d565b606091505b5080515f03610d4a57604051633250574960e11b81526001600160a01b038516600482015260240161043f565b805160208201fd5b6001600160e01b03198116630a85bd0160e11b14610d8e57604051633250574960e11b81526001600160a01b038516600482015260240161043f565b505b5050505050565b6060610da2826108d8565b505f610dac610c40565b90505f815111610dca5760405180602001604052805f815250610df5565b80610dd484610f64565b604051602001610de59291906114e5565b6040516020818303038152906040525b9392505050565b8080610e1057506001600160a01b03821615155b15610ed1575f610e1f846108d8565b90506001600160a01b03831615801590610e4b5750826001600160a01b0316816001600160a01b031614155b8015610e5e5750610e5c818461081f565b155b15610e875760405163a9fbf51f60e01b81526001600160a01b038416600482015260240161043f565b8115610ecf5783856001600160a01b0316826001600160a01b03167f8c5be1e5ebec7d5bd14f71427d1e84f3dd0314c0f7b2291e5b200ac8c7c3b92560405160405180910390a45b505b50505f90815260046020526040902080546001600160a01b0319166001600160a01b0392909216919091179055565b610f0b838383610ff4565b61054e576001600160a01b038316610f3957604051637e27328960e01b81526004810182905260240161043f565b60405163177e802f60e01b81526001600160a01b03831660048201526024810182905260440161043f565b60605f610f7083611055565b60010190505f8167ffffffffffffffff811115610f8f57610f8f611249565b6040519080825280601f01601f191660200182016040528015610fb9576020820181803683370190505b5090508181016020015b5f19016f181899199a1a9b1b9c1cb0b131b232b360811b600a86061a8153600a8504945084610fc357509392505050565b5f6001600160a01b038316158015906107be5750826001600160a01b0316846001600160a01b0316148061102d575061102d848461081f565b806107be5750505f908152600460205260409020546001600160a01b03908116911614919050565b5f8072184f03e93ff9f4daa797ed6e38ed64bf6a1f0160401b83106110935772184f03e93ff9f4daa797ed6e38ed64bf6a1f0160401b830492506040015b6d04ee2d6d415b85acef810000000083106110bf576d04ee2d6d415b85acef8100000000830492506020015b662386f26fc1000083106110dd57662386f26fc10000830492506010015b6305f5e10083106110f5576305f5e100830492506008015b612710831061110957612710830492506004015b6064831061111b576064830492506002015b600a831061034f5760010192915050565b6001600160e01b031981168114610886575f80fd5b5f60208284031215611151575f80fd5b8135610df58161112c565b5f81518084528060208401602086015e5f602082860101526020601f19601f83011685010191505092915050565b602081525f610df5602083018461115c565b5f602082840312156111ac575f80fd5b5035919050565b80356001600160a01b03811681146111c9575f80fd5b919050565b5f80604083850312156111df575f80fd5b6111e8836111b3565b946020939093013593505050565b5f805f60608486031215611208575f80fd5b611211846111b3565b925061121f602085016111b3565b929592945050506040919091013590565b5f60208284031215611240575f80fd5b610df5826111b3565b634e487b7160e01b5f52604160045260245ffd5b5f8067ffffffffffffffff84111561127757611277611249565b50604051601f19601f85018116603f0116810181811067ffffffffffffffff821117156112a6576112a6611249565b6040528381529050808284018510156112bd575f80fd5b838360208301375f60208583010152509392505050565b5f602082840312156112e4575f80fd5b813567ffffffffffffffff8111156112fa575f80fd5b8201601f8101841361130a575f80fd5b6107be8482356020840161125d565b5f806040838503121561132a575f80fd5b611333836111b3565b915060208301358015158114611347575f80fd5b809150509250929050565b5f805f8060808587031215611365575f80fd5b61136e856111b3565b935061137c602086016111b3565b925060408501359150606085013567ffffffffffffffff81111561139e575f80fd5b8501601f810187136113ae575f80fd5b6113bd8782356020840161125d565b91505092959194509250565b5f80604083850312156113da575f80fd5b6113e3836111b3565b91506113f1602084016111b3565b90509250929050565b600181811c9082168061140e57607f821691505b60208210810361142c57634e487b7160e01b5f52602260045260245ffd5b50919050565b8082018082111561034f57634e487b7160e01b5f52601160045260245ffd5b5f81518060208401855e5f93019283525090919050565b5f6114738285611451565b5f845461147f816113fa565b60018216801561149657600181146114ab576114d8565b60ff19831685528115158202850193506114d8565b875f5260205f205f5b838110156114d0578154878201526001909101906020016114b4565b505081850193505b5091979650505050505050565b5f6107be6114f38386611451565b84611451565b601f82111561054e57805f5260205f20601f840160051c8101602085101561151e5750805b601f840160051c820191505b81811015610d90575f815560010161152a565b815167ffffffffffffffff81111561155757611557611249565b61156b8161156584546113fa565b846114f9565b6020601f82116001811461159d575f83156115865750848201515b5f19600385901b1c1916600184901b178455610d90565b5f84815260208120601f198516915b828110156115cc57878501518255602094850194600190920191016115ac565b50848210156115e957868401515f19600387901b60f8161c191681555b50505050600190811b01905550565b6001600160a01b03858116825284166020820152604081018390526080606082018190525f9061162a9083018461115c565b9695505050505050565b5f60208284031215611644575f80fd5b8151610df58161112c56fea2646970667358221220d8486054a174904360cc92cb909311ca584a69f81d004a3276cda789115f63a164736f6c634300081a0033","linkReferences":{}},"methodIdentifiers":{"approve(address,uint256)":"095ea7b3","balanceOf(address)":"70a08231","documentContentHash()":"63e47b79","documentDescription()":"66ea65e7","documentTitle()":"2e0b8de4","fileName()":"7fb6c4fa","getApproved(uint256)":"081812fc","getDocument()":"b6f3f14d","getSign()":"cf504e0a","intendedSigner()":"2933dba5","isApprovedForAll(address,address)":"e985e9c5","name()":"06fdde03","owner()":"8da5cb5b","ownerOf(uint256)":"6352211e","renounceOwnership()":"715018a6","safeTransferFrom(address,address,uint256)":"42842e0e","safeTransferFrom(address,address,uint256,bytes)":"b88d4fde","setApprovalForAll(address,bool)":"a22cb465","sign(string)":"79d6348d","signed()":"232a6b9d","supportsInterface(bytes4)":"01ffc9a7","symbol()":"95d89b41","tokenURI(uint256)":"c87b56dd","transferFrom(address,address,uint256)":"23b872dd","transferOwnership(address)":"f2fde38b"},"id":1}